:100000000C94B0000C94D8000C94D8000C94D80038
:100010000C94D8000C94D8000C94D8000C94E206F0
:100020000C94D8000C94D8000C94D8000C9496072B
:100030000C94D8000C94D8000C94D8000C94D800E0
:100040000C9498060C94D8000C9464070C943E070A
:100050000C94D8000C94D8000C94D8000C94D800C0
:100060000C94D8000C94D800455252200002415202
:1000700044554445434B20524541445920004320B8
:10008000006563686F2070696E0074726967207024
:10009000696E004F4B20415244554445434B20006C
:1000A000756E6B6E6F776E20636F6D6D616E640041
:1000B000746F6E652070696E00746F6E6520706974
:1000C0006E006E6F20736572766F20736C6F7400B4
:1000D000736572766F2070696E0070776D2070693D
:1000E0006E0070696E0056200070696E006C696E5B
:1000F0006520746F6F206C6F6E6700442044004170
:1001000020410000000000240027002A0000000019
:1001100000250028002B00000000002300260029F5
:1001200000040404040404040402020202020203A0
:1001300003030303030102040810204080010204AA
:10014000081020010204081020000000080002012D
:1001500000000304070000000000000000009708F2
:1001600011241FBECFEFD8E0DEBFCDBF11E0A0E06D
:10017000B1E0E6EEFDE102C005900D92A232B107BA
:10018000D9F722E0A2E2B1E001C01D92A038B20787
:10019000E1F710E0C0EBD0E004C02197FE010E941F
:1001A000EB0ECF3AD107C9F70E94FC080C94F10E70
:1001B0000C940000833081F028F4813099F0823073
:1001C000A9F008958730A9F08830C9F08430B1F4DF
:1001D000809180008F7D03C0809180008F77809315
:1001E0008000089584B58F7784BD089584B58F7D90
:1001F000FBCF8091B0008F778093B00008958091FD
:10020000B0008F7DF9CFCF93DF93282F30E0F90135
:10021000E75BFE4F8491F901EB5CFE4FD491F9014D
:10022000EF5DFE4FC491CC23A1F081110E94DA0052
:10023000EC2FF0E0EE0FFF1FE95EFE4FA591B491A9
:10024000EC91ED2381E090E009F480E0DF91CF9123
:10025000089580E090E0FACF1F93CF93DF93282F8B
:1002600030E0F901E75BFE4F8491F901EB5CFE4F52
:10027000D491F901EF5DFE4FC491CC23A9F0162F64
:1002800081110E94DA00EC2FF0E0EE0FFF1FE35F18
:10029000FE4FA591B4918FB7F894EC91111108C05D
:1002A000D095DE23DC938FBFDF91CF911F9108950E
:1002B000DE2BF8CFCF93DF9390E0FC01EB5CFE4F99
:1002C00024918F5D9E4FFC0184918823C9F090E0BA
:1002D000880F991FFC01ED5FFE4FA591B491FC01C1
:1002E000E35FFE4FC591D49161110DC09FB7F894A3
:1002F0008C91209582238C938881282328839FBF0B
:10030000DF91CF910895623051F49FB7F8943C91FA
:10031000822F809583238C93E8812E2BEFCF8FB78C
:10032000F894EC912E2B2C938FBFEACF8E3008F0EF
:100330008E508770806480937C0080917A00806406
:1003400080937A0080917A0086FDFCCF80917800BE
:100350009091790008959091000189130BC0EDE60A
:10036000F0E0E4919FEF90930001E13049F028F034
:10037000E23061F060E00C942C0110926E00FACF34
:1003800090916F009D7F90936F00F4CF90917000DB
:100390009D7F9093700091E09093B0009091B10098
:1003A000987F94609093B1001092B300E3CF4F9286
:1003B0005F926F927F928F929F92AF92BF92CF92F5
:1003C000DF92EF92FF920F931F93CF93DF9300D0B2
:1003D00000D01F92CDB7DEB78B0129013A01909171
:1003E00000018917C9F09F3F09F47EC00F900F905C
:1003F0000F900F900F90DF91CF911F910F91FF9071
:10040000EF90DF90CF90BF90AF909F908F907F90B4
:100410006F905F904F900895EDE6F0E094919D838A
:1004200097FDE4CF61E00E945A018D81882321F07D
:100430009D81923009F04AC14801B12CA12C60E0A5
:1004400072E18AE790E0A50198010E947C0E298361
:100450003A834B835C8369017A0181E0C81AD10831
:10046000E108F1089FEFC916D104E104F10409F095
:100470000CF401C160E472E48FE090E0A501980102
:100480000E947C0E69017A0181E0C81AD108E10856
:10049000F1089D81923009F0A2C08FEFC816D104F7
:1004A000E104F10409F00CF4E6C160E970ED83E0C9
:1004B00090E0A50198010E947C0E69017A0191E00B
:1004C000C91AD108E108F1088FEFC816D104E10478
:1004D000F10411F00CF07FC183E09091B100987F9E
:1004E000892B8093B100CFC080930001EDE6F0E04E
:1004F00094919D839F3F09F479CF913041F150F061
:10050000923009F446C09D8197FD70CF61E00E9452
:100510005A018ECF14BC15BC94B5926094BD95B5AC
:10052000916095BD282F30E0F901EF5DFE4FE49119
:10053000F0E0EE0FFF1FE35FFE4F45915491F9018C
:10054000EB5CFE4FE491E09324011D826BCF10928F
:1005500080001092810090918100986090938100BA
:1005600090918100916090938100282F30E0F901F3
:10057000EF5DFE4FE491F0E0EE0FFF1FE35FFE4FF3
:1005800045915491F901EB5CFE4FE491E093230116
:1005900049CF1092B0001092B1009091B0009260DB
:1005A0009093B0009091B10091609093B100282F8A
:1005B00030E0F901EF5DFE4FE491F0E0EE0FFF1F38
:1005C000E35FFE4F4591549150932E0140932D01CE
:1005D000F901EB5CFE4FE491E0932F0123CF9FEFF5
:1005E000C916D104E104F10409F00CF46DC068E40B
:1005F00078EE81E090E0A50198010E947C0E6901EF
:100600007A0181E0C81AD108E108F1089D81992397
:1006100009F4FAC08FEFC816D104E104F10411F017
:100620000CF0FBC0EFC064E274EF80E090E0A50145
:1006300094010E947C0E69017A0181E0C81AD108F8
:10064000E108F10885E09FEFC916D104E104F10447
:1006500009F008F442CF62E17AE780E090E0A5017A
:1006600094010E947C0E69017A0181E0C81AD108C8
:10067000E108F108E5C081E09D8191112ECF95B58B
:10068000987F892B85BD2FEF3FEFA90141145104BD
:100690006104710409F043C09D81913009F45EC08A
:1006A000923009F46DC09111A1CEC7BC20932901ED
:1006B00030932A0140932B0150932C0180916E00BE
:1006C000826080936E0092CE82E0D6CFB12CA12CB6
:1006D00060E072E18AE790E0A50198010E947C0E3B
:1006E00069017A0181E0C81AD108E108F108C11452
:1006F000D10491E0E906F10404F591E08D818130A7
:1007000011F680918100887F892B809381002FEFE3
:100710003FEFA9014114510461047104F9F0D801BB
:10072000AA0FBB1FA30192010E949B0E28EE33E08B
:1007300040E050E00E94AE0EAFCF68E478EE81E07A
:1007400090E0A50198010E947C0E69017A0181E088
:10075000C81AD108E108F10893E0D0CFD0928900FF
:10076000C0928800209325013093260140932701F1
:100770005093280180916F00826080936F0036CE85
:10078000C092B30020933001309331014093320185
:10079000509333018091700082608093700026CE68
:1007A00084E09FEFC916D104E104F10409F008F4D4
:1007B00066CFC980DA80EB80FC808AE0F594E7940C
:1007C000D794C7948A95D1F781E0C81AD108E10877
:1007D000F10885E054CF68E478EE81E090E0A5016F
:1007E00098010E947C0E69017A0181E0C81AD10843
:1007F000E108F1089FEFC916D104E104F10411F0FA
:100800000CF011CF84E069CE83E09FEFC916D104CC
:10081000E104F10409F00CF432CF62E17AE780E000
:1008200090E0A50194010E947C0E69017A0181E0AB
:10083000C81AD108E108F1089D81992309F4B0CFC5
:1008400086E09FEFC916D104E104F10409F008F431
:1008500044CEC980DA80EB80FC809AE0F594E7947E
:10086000D794C7949A95D1F781E0C81AD108E108C6
:10087000F10887E032CE82E030CEAF92BF92CF92C5
:10088000DF92EF92FF920F931F93CF93DF936C0150
:100890007B018B01040F151FEB015E01AE18BF0831
:1008A000C017D10759F06991D601ED91FC910190E3
:1008B000F081E02DC6010995892B79F7C501DF91FB
:1008C000CF911F910F91FF90EF90DF90CF90BF904D
:1008D000AF900895FC01538D448D252F30E0842F77
:1008E00090E0821B930B541710F0CF960895019758
:1008F0000895FC01918D828D981761F0A28DAE0F45
:10090000BF2FB11D5D968C91928D9F5F9F73928FCB
:1009100090E008958FEF9FEF0895FC01918D828DF7
:10092000981731F0828DE80FF11D858D90E00895C4
:100930008FEF9FEF0895FC01918D228D892F90E01C
:10094000805C9F4F821B91098F73992708958AEAD3
:1009500091E00E949B0421E0892B09F420E0822F82
:10096000089580E090E0892B29F00E94A70481116E
:100970000C9400000895FC01A48DA80FB92FB11D9F
:10098000A35ABF4F2C91848D90E001968F739927C5
:10099000848FA689B7892C93A089B1898C918370A3
:1009A00080648C93938D848D981306C00288F3899C
:1009B000E02D80818F7D80830895EF92FF920F93C9
:1009C0001F93CF93DF93EC0181E0888F9B8D8C8DFB
:1009D00098131AC0E889F989808185FF15C09FB7EF
:1009E000F894EE89FF896083E889F98980818370B2
:1009F000806480839FBF81E090E0DF91CF911F9161
:100A00000F91FF90EF900895F62E0B8D10E00F5F81
:100A10001F4F0F731127E02E8C8D8E110CC00FB657
:100A200007FCFACFE889F989808185FFF5CFCE01EF
:100A30000E94BB04F1CFEB8DEC0FFD2FF11DE35AAB
:100A4000FF4FF0829FB7F8940B8FEA89FB89808172
:100A50008062CFCF682F8AEA91E00C94DD040F9377
:100A60001F93CF93DF938C01D0E0C0E0F801EC0F2F
:100A7000FD1F6491662341F08AEA91E00E94DD0443
:100A8000892B11F02196F2CFCE01DF91CF911F91EA
:100A90000F910895CF93DF93EC01888D8823B9F0EF
:100AA000AA89BB89E889F9898C9185FD03C0808179
:100AB00086FD0DC00FB607FCF7CF8C9185FFF2CFF6
:100AC000808185FFEDCFCE010E94BB04E9CFDF918D
:100AD000CF910895E0914201A4E3B1E090E0E917DD
:100AE00029F02D91281761F09F5FF9CFEE3040F487
:100AF00091E09E0F90934201F0E0EC5CFE4F80830A
:100B00000895CF93DF93DC018D919C911197FC01A7
:100B1000009721F4DF91CF910895FA01CF01208150
:100B2000AF014F5F5F4F2617C1F3211105C01D9222
:100B30001C9290E080E0EECFEF012191222331F072
:100B40002613FACF1882ED93FC93E4CF1D921C92EA
:100B5000E1CFFC0101900020E9F73197AF01481B7C
:100B6000590BBC018AEA91E00C943D04CF93DF93CA
:100B7000EC0188E690E00E942F05CE010E942F052F
:100B800087E191E0DF91CF910C94A9058F929F921C
:100B9000AF92BF92CF92DF92EF92FF920F931F938B
:100BA000CF93DF93CDB7DEB7A1970FB6F894DEBF32
:100BB0000FBECDBF6B017C01F7FE3FC08DE20E94EE
:100BC0002A058C0122273327A9012C193D094E093A
:100BD0005F0919A2CE0181967C019AE0892E912CA1
:100BE000A12CB12CCA01B901A50194010E94AE0E3D
:100BF000605DF70162937F012115310541055105C3
:100C000089F790E080E0309719F0CF010E94A905A4
:100C1000800F911FA1960FB6F894DEBF0FBECDBF17
:100C2000DF91CF911F910F91FF90EF90DF90CF90C8
:100C3000BF90AF909F908F900895AC019B0119A237
:100C40008E010F5D1F4F8AE0C82ED12CE12CF12CB4
:100C5000CA01B901A70196010E94AE0E605DF801BC
:100C600062938F01211531054105510589F790E007
:100C700080E0309779F2CF010E94A905CBCFCF93C6
:100C8000DF93BC01990F880B990B0E94C605EC01FC
:100C900087E191E00E94A9058C0F9D1FDF91CF9104
:100CA0000895CF92DF92EF92FF920F931F93CF930D
:100CB000FC01892BD9F1C081CC23C1F1CF7DC13496
:100CC000C9F481818053863088F5828181112EC0DC
:100CD00081E0DA018C93D9011C9281818252FB015F
:100CE000808381E0CF911F910F91FF90EF90DF9073
:100CF000CF900895C43411F0C535C1F479016A016B
:100D00008B01CF0101960E941A0E9C0122503109DD
:100D10002C30310558F4D6011C9221E0C53509F07C
:100D200020E0F7012083D8018C93DBCF80E0DACF7D
:100D30001F920F920FB60F9211242F933F938F9310
:100D40009F93AF93BF938091A6019091A701A0912B
:100D5000A801B091A9013091A50123E0230F2D37FF
:100D600058F50196A11DB11D2093A5018093A60100
:100D70009093A701A093A801B093A9018091A1012C
:100D80009091A201A091A301B091A4010196A11D8F
:100D9000B11D8093A1019093A201A093A301B093F0
:100DA000A401BF91AF919F918F913F912F910F908F
:100DB0000FBE0F901F90189526E8230F0296A11DD5
:100DC000B11DD2CF1F920F920FB60F9211242F9305
:100DD0003F934F935F936F937F938F939F93AF93C3
:100DE000BF93EF93FF938091300190913101A091D7
:100DF0003201B0913301892B8A2B8B2BD1F1909149
:100E00002F01E0912D01F0912E01808189278083AF
:100E10008091300190913101A0913201B091330164
:100E2000181619061A061B069CF480913001909141
:100E30003101A0913201B09133010197A109B109AB
:100E40008093300190933101A0933201B09333012C
:100E5000FF91EF91BF91AF919F918F917F916F9192
:100E60005F914F913F912F910F900FBE0F901F9068
:100E70001895809100010E94AB01EACF1F920F925A
:100E80000FB60F9211242F933F934F935F936F935D
:100E90007F938F939F93AF93BF93EF93FF938AEAD0
:100EA00091E00E94BB04FF91EF91BF91AF919F91A0
:100EB0008F917F916F915F914F913F912F910F9003
:100EC0000FBE0F901F9018951F920F920FB60F92A2
:100ED00011242F938F939F93EF93FF93E091BA0187
:100EE000F091BB018081E091C001F091C10182FDD0
:100EF0001BC090818091C3018F5F8F732091C401CB
:100F0000821741F0E091C301F0E0E655FE4F958F66
:100F10008093C301FF91EF919F918F912F910F903B
:100F20000FBE0F901F9018958081F4CF1F920F92E3
:100F30000FB60F9211242F933F934F935F936F93AC
:100F40007F938F939F93AF93BF93CF93DF93EF9351
:100F5000FF9380912201C0916B02D0E087FF24C0F3
:100F60001092850010928400809122018F5F8093FF
:100F7000220180912201082E000C990B8C179D07ED
:100F800024F4809122018C30C4F1809184009091EE
:100F90008500049680349C4908F47AC080918400CE
:100FA00090918500049676C080912201082E000C55
:100FB000990B8C179D07C4F6E09122018E2FEE0F3E
:100FC000990BFC01EE0FFF1FE80FF91FE95BFD4FC6
:100FD000808186FFC9CFE09122018E2FEE0F990B01
:100FE000FC01EE0FFF1FE80FF91FE95BFD4F808149
:100FF00060E08F730E942C01B7CF20918400309164
:101000008500E09122018E2FEE0F990BFC01EE0F6F
:10101000FF1FE80FF91FE95BFD4F81819281820F6D
:10102000931F9093890080938800E09122018E2F76
:10103000EE0F990BFC01EE0FFF1FE80FF91FE95BA4
:10104000FD4F808186FF11C0E09122018E2FEE0FAF
:10105000990BFC01EE0FFF1FE80FF91FE95BFD4F35
:10106000808161E08F730E942C01FF91EF91DF91ED
:10107000CF91BF91AF919F918F917F916F915F9130
:101080004F913F912F910F900FBE0F901F90189589
:1010900080E49CE990938900809388008FEF80938F
:1010A0002201E3CFCF92DF92EF92FF920F931F9333
:1010B000E82FF92F05C0015011092109310961F10B
:1010C000908196239417B9F305C0015011092109A5
:1010D000310911F1908196239413F7CFC12CD12CB3
:1010E000E12CF12C0AC08FEFC81AD80AE80AF80AD6
:1010F0000C151D052E053F0579F080818623841788
:1011000091F36C2D7D2D8E2D9F2D1F910F91FF90B2
:10111000EF90DF90CF90089560E070E080E090E085
:101120001F910F91FF90EF90DF90CF900895109254
:10113000AD011092AC0188EE93E0A0E0B0E08093A6
:10114000AE019093AF01A093B001B093B10189E0DB
:1011500091E09093AB018093AA0185EC90E090938D
:10116000B7018093B60184EC90E09093B90180932D
:10117000B80180EC90E09093BB018093BA0181ECC0
:1011800090E09093BD018093BC0182EC90E090933D
:10119000BF018093BE0186EC90E09093C1018093E3
:1011A000C0011092C3011092C4011092C5011092A7
:1011B000C601ECE6F2E020E832E04FEF68EB7BE0BE
:1011C00080916B028C30B0F491E0980F90936B0299
:1011D000818390E0DC01AA0FBB1FA80FB91FA95B98
:1011E000BD4F12967C936E93119735962E173F073D
:1011F00039F708954183F9CFCF93DF93CDB7DEB7A9
:101200002A970FB6F894DEBF0FBECDBF789484B591
:10121000826084BD84B5816084BD85B5826085BDF2
:1012200085B5816085BD80916E00816080936E0080
:101230001092810080918100826080938100809172
:101240008100816080938100809180008160809323
:1012500080008091B10084608093B1008091B000E3
:1012600081608093B00080917A00846080937A00DE
:1012700080917A00826080937A0080917A00816008
:1012800080937A0080917A00806880937A0010922F
:10129000C100E091BA01F091BB0182E08083E0914E
:1012A000B601F091B7011082E091B801F091B90157
:1012B00080E180831092C201E091BE01F091BF01F4
:1012C00086E08083E091BC01F091BD018081806166
:1012D0008083E091BC01F091BD01808188608083B2
:1012E000E091BC01F091BD01808180688083E09134
:1012F000BC01F091BD0180818F7D80838EE690E0FE
:101300000E942F0581E090E00E943F0674EB472E7B
:10131000512C612C712C8AEA91E00E949B041816D2
:1013200019060CF002C48AEA91E00E9479048D301B
:1013300091F3E09173018A3009F0E5C3AE2FB0E07C
:10134000AD5BBE4F1C92EE2309F4A3C083E491E091
:101350009C838B8360E2CE0103960E9481058C0101
:1013600060E2CE0103960E9481057C0160E2CE011D
:1013700003960E9481056C0160E2CE0103960E94F3
:1013800081055C010115110509F483C0D8018C9118
:101390008F3369F411968C9181117EC083E990E0BE
:1013A0000E942F0581E090E00E943F0672C08534C4
:1013B00009F042C0F801818181116EC01092A00134
:1013C000E114F10409F465C0FA82E9826CE2CE010D
:1013D00001960E948105009709F45BC01091A0015D
:1013E000143108F056C01F821E821D829E012B5FA1
:1013F0003F4FAE014A5F5F4FBE01695F7F4F0E9462
:101400005106882319F38E81811108C08D8162E015
:10141000811101C060E08F810E945A01E12FF0E04C
:10142000EE0FFF1FEC58FE4F8F8180838E818183EA
:101430001F5F1093A001CACF853671F511968C916C
:1014400081112AC0E114F10421F45FE1E52E51E09D
:10145000F52EC7010E94380E6938B3E17B0781057C
:10146000910524F068E873E180E090E0DC01CB01B5
:1014700085309105A105B10524F485E090E0A0E058
:10148000B0E08093010190930201A0930301B09317
:101490000401109273013FCF1A8619861886F8014D
:1014A0008081823581F5818181112AC39E01285F67
:1014B0003F4FAE01475F5F4FBE01665F7F4FC70181
:1014C0000E945106811105C089EE90E00E94B60588
:1014D000E0CF8985882399F08A850E9496018C0146
:1014E00086EE90E00E942F05E114F10419F0C70187
:1014F0000E94A90580E20E942A05C80155CF8A856D
:101500000E940301ECCF873581F581818111F8C2FA
:101510009E01285F3F4FAE01475F5F4FBE01665F90
:101520007F4FC7010E9451068823E1F08985811110
:1015300019C061E08A850E945A018A850E946A0565
:10154000C114D10421F44FE1C42E41E0D42EC601D0
:101550000E941A0E61E0892B09F460E08A850E94DE
:101560002C0197CF82EE90E0B1CF803509F08CC08E
:1015700081818111C5C29E01285F3F4FAE01475F47
:101580005F4FBE01665F7F4FC7010E9451068823EF
:1015900079F1898581112CC0FA84F2E0FF1641F1BE
:1015A00024E0F21629F189EF8F0D823008F184EFE3
:1015B0008F0D8230E8F0C114D10421F43FE1C32E35
:1015C00031E0D32EC6010E941A0E8C0161E08F2DEE
:1015D0000E945A018A850E946A05FA8461E08F2D73
:1015E0000E945A011016110634F060E08F2DB7CF1B
:1015F0008AED90E06BCF0F3F110514F061E0F6CF5C
:10160000EF2DF0E0E75BFE4FE491E33019F140F499
:10161000E130B1F0E230C9F0003811057CF7E5CFD8
:10162000E73011F1E83041F1E430B1F7809180000A
:1016300080628093800010938B0000938A0029CFF2
:1016400084B5806884BD07BD24CF84B5806284BD25
:1016500008BD1FCF80918000806880938000109328
:1016600089000093880015CF8091B0008068809336
:10167000B0000093B3000DCF8091B00080628093E2
:10168000B0000093B40005CF833509F01CC18181FF
:10169000811136C29E01285F3F4FAE01475F5F4F09
:1016A000BE01665F7F4FC7010E945106882309F47F
:1016B000E7C089858111E4C0C114D10421F42AE175
:1016C000C22E21E0D22EC6010E941A0E6C01FA84AD
:1016D000ACE6B2E0FD0190E080E02481222309F431
:1016E000D2C02081F212CFC025E0289F8001299F1F
:1016F000100D112404591D4FD80114968C9181119D
:1017000060C0D80111968C918C3008F057C061E010
:101710008F2D0E945A01F8018181282F30E0F901B4
:10172000EE0FFF1FE20FF31FE95BFD4F2F2D2F730D
:10173000F22E9081907CF92AF082D80112961C92A8
:10174000129713961C922CE0622F0E94DF0E829F4C
:10175000B001112430E020E0AB01420F531FFA0129
:10176000EE0FFF1FE40FF51FE95BFD4F908196FD23
:1017700016C02F5F3F4F2C30310571F781110FC01C
:101780001092800082E08093810010928500109278
:101790008400B19A80916F00826080936F00D801BD
:1017A0001196EC918E2F90E0FC01EE0FFF1FE80FD9
:1017B000F91FE95BFD4F80818064808381E0F8013F
:1017C0008483F8013180FBE0F31508F462CED80180
:1017D00013968C91139778E5E72E72E0F72EE81AAE
:1017E000F10887FDF394EE0CFF1CEE0CFF1C129623
:1017F0008C9108E810E0081B110987FD1395000F74
:10180000111F000F111F4801012E000CAA08BB0870
:10181000D601A53BB10514F0A4EBB0E0B7FF02C0C0
:10182000B0E0A0E097010F2C000C440B550B2819D9
:1018300039094A095B090E94A60EA30192010E9480
:101840007C0E820E931EA41EB51E801691062CF0EF
:1018500087018E149F040CF4840102501109000FBB
:10186000111F2FB7F894832D90E0FC01EE0FFF1F9E
:10187000E80FF91FE95BFD4F128301832FBF09CEEB
:1018800080ED90E023CE019635968430910509F0E5
:1018900024CF90E080E014962C91149721110BC076
:1018A00025E0289F8001299F100D112404591D4F08
:1018B000F801F08221CF019615968430910559F7F1
:1018C00082EC90E003CE843509F043C08181811120
:1018D00017C19E01285F3F4FAE01475F5F4FBE01BA
:1018E000665F7F4FC7010E945106882379F1898581
:1018F00081112CC0C114D10421F44DE1C42E41E06A
:10190000D42EC6010E94380E6B01A114B10421F43B
:101910003FE1A32E31E0B32EC5010E94380E4B01EA
:101920005C0161E08A850E945A018A850E946A05ED
:10193000A501940189288A288B2819F420E030E039
:10194000A901B6018A850E94D701A3CD89EB90E059
:10195000BDCD8E34D9F481818111D2C09E01285F22
:101960003F4FAE01475F5F4FBE01665F7F4FC701CC
:101970000E945106882339F08985811104C08A8527
:101980000E94AB0186CD80EB90E0A0CD8D3409F0B4
:101990008CC081818111B4C01F821E821D82198278
:1019A0009E012F5F3F4FAE014B5F5F4FBE01695FEE
:1019B0007F4FC7010E9451068823A1F08D818111BC
:1019C00011C09E012F5F3F4FAE014B5F5F4FBE01C5
:1019D0006A5F7F4FC6010E945106811106C081E8EF
:1019E00090E074CD8AE890E071CD8D818111F7CFC0
:1019F00061E08F810E945A0160E08E810E945A014D
:101A000060E08F810E942C0183E090E00197F1F764
:101A100061E08F810E942C0183E290E00197F1F751
:101A200060E08F810E942C018E8190E0FC01EB5CD4
:101A3000FE4F6491FC01EF5DFE4FE491F0E0EE0F8C
:101A4000FF1FE95EFE4F8591949100E315E720E0CA
:101A500030E0462F0E9452086115710581059105FD
:101A600051F06F5F7F4F8F4F9F4F9F7061157105D2
:101A70008105910529F4CC24CA94DC2C760108C098
:101A80002AE330E040E050E00E94AE0E69017A01A6
:101A90008EE790E00E942F05C701B6010E94C6059F
:101AA00087E191E00E94A905F4CC883549F5818150
:101AB000811126C000E080914201081708F0E9CCAE
:101AC000E02FF0E0EC5CFE4F1081812F0E94AB0113
:101AD000133041F08BEF810F823020F087EF810FC0
:101AE000833040F461E0812F0E945A0160E0812F31
:101AF0000E942C0160E0812F0E942C010F5FDBCF40
:101B000080EA90E0E3CCEF3248F491E09E0F9093AE
:101B10007301F0E0ED5BFE4F8083FDCB109273010B
:101B20008DEE90E00E94B605F6CB8091A00188234F
:101B300009F473C02FB7F8948091A6019091A70182
:101B4000A091A801B091A9012FBF40919C01509193
:101B50009D0160919E0170919F01841B950BA60BC6
:101B6000B70B409101015091020160910301709106
:101B7000040184179507A607B70708F44EC02FB7CE
:101B8000F8948091A6019091A701A091A801B0912D
:101B9000A9012FBF80939C0190939D01A0939E016A
:101BA000B0939F01F12C8091A001F816B0F50F2D94
:101BB00010E0000F111F0C581E4FF801E0808181CA
:101BC0008823C9F08FEF90E00E942F058E2D8E5054
:101BD000990BBC01072E000C880B990B0E94C605BF
:101BE00080E20E942A05D8018C910E9496010E94F1
:101BF0003F06F394D8CF8BEF90E00E942F056E2D17
:101C000070E090E080E00E94C60580E20E942A0514
:101C1000F80180810E940301EACF80E090E0892BE7
:101C200009F479CB0E94A704882309F474CB0E949D
:101C3000000071CBFC0188279927E894219120327C
:101C4000E9F3293010F02E30C8F32B3241F02D3259
:101C500039F4689404C00E94740E820F911D219182
:101C600020532A30C0F31EF4909581959F4F08951C
:101C70001F93FC0199278827BC01E8941191103229
:101C8000E9F3193010F01E30C8F31B3251F01D3249
:101C900049F4689406C00E945F0E610F711D811D9A
:101CA000911D119110531A30B0F33EF49095809528
:101CB000709561957F4F8F4F9F4F1F910895592FBA
:101CC000482F372F262F660F771F881F991F660F03
:101CD000771F881F991F620F731F841F951F660F40
:101CE000771F881F991F08957AE0979F902D879FEF
:101CF000802D910D11240895052E97FB1EF400945C
:101D00000E94930E57FD07D00E94AE0E07FC03D031
:101D10004EF40C94930E50954095309521953F4F7D
:101D20004F4F5F4F089590958095709561957F4FC7
:101D30008F4F9F4F08950E94D00EA59F900DB49F86
:101D4000900DA49F800D911D11240895B7FF0C9450
:101D50009B0E0E949B0E821B930B0895A1E21A2EEC
:101D6000AA1BBB1BFD010DC0AA1FBB1FEE1FFF1F3F
:101D7000A217B307E407F50720F0A21BB30BE40B8F
:101D8000F50B661F771F881F991F1A9469F76095D6
:101D90007095809590959B01AC01BD01CF01089590
:101DA000A29FB001B39FC001A39F700D811D11249C
:101DB000911DB29F700D811D1124911D0895991BD5
:101DC00079E004C0991F961708F0961B881F7A9532
:101DD000C9F780950895EE0FFF1F0590F491E02D4F
:061DE0000994F894FFCF06
:101DE600FF1900000000000000DD043D046A044AFB
:101DF600059B0479048D040D0A0039300034343013
:021E06000000DA
:00000001FF
